{
  "contractName": "NftToken",
  "abi": [
    {
      "inputs": [
        {
          "internalType": "string",
          "name": "_name",
          "type": "string"
        },
        {
          "internalType": "string",
          "name": "_symbol",
          "type": "string"
        },
        {
          "internalType": "string",
          "name": "_initBaseURI",
          "type": "string"
        }
      ],
      "stateMutability": "nonpayable",
      "type": "constructor"
    },
    {
      "anonymous": false,
      "inputs": [
        {
          "indexed": true,
          "internalType": "address",
          "name": "owner",
          "type": "address"
        },
        {
          "indexed": true,
          "internalType": "address",
          "name": "approved",
          "type": "address"
        },
        {
          "indexed": true,
          "internalType": "uint256",
          "name": "tokenId",
          "type": "uint256"
        }
      ],
      "name": "Approval",
      "type": "event"
    },
    {
      "anonymous": false,
      "inputs": [
        {
          "indexed": true,
          "internalType": "address",
          "name": "owner",
          "type": "address"
        },
        {
          "indexed": true,
          "internalType": "address",
          "name": "operator",
          "type": "address"
        },
        {
          "indexed": false,
          "internalType": "bool",
          "name": "approved",
          "type": "bool"
        }
      ],
      "name": "ApprovalForAll",
      "type": "event"
    },
    {
      "anonymous": false,
      "inputs": [
        {
          "indexed": true,
          "internalType": "address",
          "name": "previousOwner",
          "type": "address"
        },
        {
          "indexed": true,
          "internalType": "address",
          "name": "newOwner",
          "type": "address"
        }
      ],
      "name": "OwnershipTransferred",
      "type": "event"
    },
    {
      "anonymous": false,
      "inputs": [
        {
          "indexed": true,
          "internalType": "address",
          "name": "from",
          "type": "address"
        },
        {
          "indexed": true,
          "internalType": "address",
          "name": "to",
          "type": "address"
        },
        {
          "indexed": true,
          "internalType": "uint256",
          "name": "tokenId",
          "type": "uint256"
        }
      ],
      "name": "Transfer",
      "type": "event"
    },
    {
      "inputs": [
        {
          "internalType": "address",
          "name": "to",
          "type": "address"
        },
        {
          "internalType": "uint256",
          "name": "tokenId",
          "type": "uint256"
        }
      ],
      "name": "approve",
      "outputs": [],
      "stateMutability": "nonpayable",
      "type": "function"
    },
    {
      "inputs": [
        {
          "internalType": "address",
          "name": "owner",
          "type": "address"
        }
      ],
      "name": "balanceOf",
      "outputs": [
        {
          "internalType": "uint256",
          "name": "",
          "type": "uint256"
        }
      ],
      "stateMutability": "view",
      "type": "function",
      "constant": true
    },
    {
      "inputs": [],
      "name": "baseExtension",
      "outputs": [
        {
          "internalType": "string",
          "name": "",
          "type": "string"
        }
      ],
      "stateMutability": "view",
      "type": "function",
      "constant": true
    },
    {
      "inputs": [],
      "name": "baseURI",
      "outputs": [
        {
          "internalType": "string",
          "name": "",
          "type": "string"
        }
      ],
      "stateMutability": "view",
      "type": "function",
      "constant": true
    },
    {
      "inputs": [],
      "name": "cost",
      "outputs": [
        {
          "internalType": "uint256",
          "name": "",
          "type": "uint256"
        }
      ],
      "stateMutability": "view",
      "type": "function",
      "constant": true
    },
    {
      "inputs": [
        {
          "internalType": "uint256",
          "name": "tokenId",
          "type": "uint256"
        }
      ],
      "name": "getApproved",
      "outputs": [
        {
          "internalType": "address",
          "name": "",
          "type": "address"
        }
      ],
      "stateMutability": "view",
      "type": "function",
      "constant": true
    },
    {
      "inputs": [
        {
          "internalType": "address",
          "name": "owner",
          "type": "address"
        },
        {
          "internalType": "address",
          "name": "operator",
          "type": "address"
        }
      ],
      "name": "isApprovedForAll",
      "outputs": [
        {
          "internalType": "bool",
          "name": "",
          "type": "bool"
        }
      ],
      "stateMutability": "view",
      "type": "function",
      "constant": true
    },
    {
      "inputs": [],
      "name": "maxMintAmount",
      "outputs": [
        {
          "internalType": "uint256",
          "name": "",
          "type": "uint256"
        }
      ],
      "stateMutability": "view",
      "type": "function",
      "constant": true
    },
    {
      "inputs": [],
      "name": "maxSupply",
      "outputs": [
        {
          "internalType": "uint256",
          "name": "",
          "type": "uint256"
        }
      ],
      "stateMutability": "view",
      "type": "function",
      "constant": true
    },
    {
      "inputs": [],
      "name": "name",
      "outputs": [
        {
          "internalType": "string",
          "name": "",
          "type": "string"
        }
      ],
      "stateMutability": "view",
      "type": "function",
      "constant": true
    },
    {
      "inputs": [],
      "name": "owner",
      "outputs": [
        {
          "internalType": "address",
          "name": "",
          "type": "address"
        }
      ],
      "stateMutability": "view",
      "type": "function",
      "constant": true
    },
    {
      "inputs": [
        {
          "internalType": "uint256",
          "name": "tokenId",
          "type": "uint256"
        }
      ],
      "name": "ownerOf",
      "outputs": [
        {
          "internalType": "address",
          "name": "",
          "type": "address"
        }
      ],
      "stateMutability": "view",
      "type": "function",
      "constant": true
    },
    {
      "inputs": [],
      "name": "paused",
      "outputs": [
        {
          "internalType": "bool",
          "name": "",
          "type": "bool"
        }
      ],
      "stateMutability": "view",
      "type": "function",
      "constant": true
    },
    {
      "inputs": [],
      "name": "renounceOwnership",
      "outputs": [],
      "stateMutability": "nonpayable",
      "type": "function"
    },
    {
      "inputs": [
        {
          "internalType": "address",
          "name": "from",
          "type": "address"
        },
        {
          "internalType": "address",
          "name": "to",
          "type": "address"
        },
        {
          "internalType": "uint256",
          "name": "tokenId",
          "type": "uint256"
        }
      ],
      "name": "safeTransferFrom",
      "outputs": [],
      "stateMutability": "nonpayable",
      "type": "function"
    },
    {
      "inputs": [
        {
          "internalType": "address",
          "name": "from",
          "type": "address"
        },
        {
          "internalType": "address",
          "name": "to",
          "type": "address"
        },
        {
          "internalType": "uint256",
          "name": "tokenId",
          "type": "uint256"
        },
        {
          "internalType": "bytes",
          "name": "data",
          "type": "bytes"
        }
      ],
      "name": "safeTransferFrom",
      "outputs": [],
      "stateMutability": "nonpayable",
      "type": "function"
    },
    {
      "inputs": [
        {
          "internalType": "address",
          "name": "operator",
          "type": "address"
        },
        {
          "internalType": "bool",
          "name": "approved",
          "type": "bool"
        }
      ],
      "name": "setApprovalForAll",
      "outputs": [],
      "stateMutability": "nonpayable",
      "type": "function"
    },
    {
      "inputs": [
        {
          "internalType": "bytes4",
          "name": "interfaceId",
          "type": "bytes4"
        }
      ],
      "name": "supportsInterface",
      "outputs": [
        {
          "internalType": "bool",
          "name": "",
          "type": "bool"
        }
      ],
      "stateMutability": "view",
      "type": "function",
      "constant": true
    },
    {
      "inputs": [],
      "name": "symbol",
      "outputs": [
        {
          "internalType": "string",
          "name": "",
          "type": "string"
        }
      ],
      "stateMutability": "view",
      "type": "function",
      "constant": true
    },
    {
      "inputs": [
        {
          "internalType": "uint256",
          "name": "index",
          "type": "uint256"
        }
      ],
      "name": "tokenByIndex",
      "outputs": [
        {
          "internalType": "uint256",
          "name": "",
          "type": "uint256"
        }
      ],
      "stateMutability": "view",
      "type": "function",
      "constant": true
    },
    {
      "inputs": [
        {
          "internalType": "address",
          "name": "owner",
          "type": "address"
        },
        {
          "internalType": "uint256",
          "name": "index",
          "type": "uint256"
        }
      ],
      "name": "tokenOfOwnerByIndex",
      "outputs": [
        {
          "internalType": "uint256",
          "name": "",
          "type": "uint256"
        }
      ],
      "stateMutability": "view",
      "type": "function",
      "constant": true
    },
    {
      "inputs": [],
      "name": "totalSupply",
      "outputs": [
        {
          "internalType": "uint256",
          "name": "",
          "type": "uint256"
        }
      ],
      "stateMutability": "view",
      "type": "function",
      "constant": true
    },
    {
      "inputs": [
        {
          "internalType": "address",
          "name": "from",
          "type": "address"
        },
        {
          "internalType": "address",
          "name": "to",
          "type": "address"
        },
        {
          "internalType": "uint256",
          "name": "tokenId",
          "type": "uint256"
        }
      ],
      "name": "transferFrom",
      "outputs": [],
      "stateMutability": "nonpayable",
      "type": "function"
    },
    {
      "inputs": [
        {
          "internalType": "address",
          "name": "newOwner",
          "type": "address"
        }
      ],
      "name": "transferOwnership",
      "outputs": [],
      "stateMutability": "nonpayable",
      "type": "function"
    },
    {
      "inputs": [
        {
          "internalType": "address",
          "name": "",
          "type": "address"
        }
      ],
      "name": "whitelisted",
      "outputs": [
        {
          "internalType": "bool",
          "name": "",
          "type": "bool"
        }
      ],
      "stateMutability": "view",
      "type": "function",
      "constant": true
    },
    {
      "inputs": [
        {
          "internalType": "address",
          "name": "_to",
          "type": "address"
        },
        {
          "internalType": "uint256",
          "name": "_mintAmount",
          "type": "uint256"
        }
      ],
      "name": "mint",
      "outputs": [],
      "stateMutability": "payable",
      "type": "function",
      "payable": true
    },
    {
      "inputs": [
        {
          "internalType": "address",
          "name": "_owner",
          "type": "address"
        }
      ],
      "name": "walletOfOwner",
      "outputs": [
        {
          "internalType": "uint256[]",
          "name": "",
          "type": "uint256[]"
        }
      ],
      "stateMutability": "view",
      "type": "function",
      "constant": true
    },
    {
      "inputs": [
        {
          "internalType": "uint256",
          "name": "tokenId",
          "type": "uint256"
        }
      ],
      "name": "tokenURI",
      "outputs": [
        {
          "internalType": "string",
          "name": "",
          "type": "string"
        }
      ],
      "stateMutability": "view",
      "type": "function",
      "constant": true
    },
    {
      "inputs": [
        {
          "internalType": "uint256",
          "name": "_newCost",
          "type": "uint256"
        }
      ],
      "name": "setCost",
      "outputs": [],
      "stateMutability": "nonpayable",
      "type": "function"
    },
    {
      "inputs": [
        {
          "internalType": "uint256",
          "name": "_newmaxMintAmount",
          "type": "uint256"
        }
      ],
      "name": "setmaxMintAmount",
      "outputs": [],
      "stateMutability": "nonpayable",
      "type": "function"
    },
    {
      "inputs": [
        {
          "internalType": "string",
          "name": "_newBaseURI",
          "type": "string"
        }
      ],
      "name": "setBaseURI",
      "outputs": [],
      "stateMutability": "nonpayable",
      "type": "function"
    },
    {
      "inputs": [
        {
          "internalType": "string",
          "name": "_newBaseExtension",
          "type": "string"
        }
      ],
      "name": "setBaseExtension",
      "outputs": [],
      "stateMutability": "nonpayable",
      "type": "function"
    },
    {
      "inputs": [
        {
          "internalType": "bool",
          "name": "_state",
          "type": "bool"
        }
      ],
      "name": "pause",
      "outputs": [],
      "stateMutability": "nonpayable",
      "type": "function"
    },
    {
      "inputs": [
        {
          "internalType": "address",
          "name": "_user",
          "type": "address"
        }
      ],
      "name": "whitelistUser",
      "outputs": [],
      "stateMutability": "nonpayable",
      "type": "function"
    },
    {
      "inputs": [
        {
          "internalType": "address",
          "name": "_user",
          "type": "address"
        }
      ],
      "name": "removeWhitelistUser",
      "outputs": [],
      "stateMutability": "nonpayable",
      "type": "function"
    },
    {
      "inputs": [],
      "name": "withdraw",
      "outputs": [],
      "stateMutability": "payable",
      "type": "function",
      "payable": true
    }
  ],
  "bytecode": "0x60c06040526005608090815264173539b7b760d91b60a052600c90620000269082620009a3565b5064e8d4a51000600d5560c8600e55600a600f556010805460ff191690553480156200005157600080fd5b5060405162002f0938038062002f09833981016040819052620000749162000b26565b82826000620000848382620009a3565b506001620000938282620009a3565b505050620000b0620000aa620000d160201b60201c565b620000d5565b620000bb8162000127565b620000c833600a62000143565b50505062000cf2565b3390565b600a80546001600160a01b038381166001600160a01b0319831681179093556040519116919082907f8be0079c531659141344cd1fd0a4f28419497f9722a3daafe3b4186f6b6457e090600090a35050565b6200013162000226565b600b6200013f8282620009a3565b5050565b60006200014f60085490565b60105490915060ff16156200016357600080fd5b600082116200017157600080fd5b600f548211156200018157600080fd5b600e5462000190838362000bcd565b11156200019c57600080fd5b600a546001600160a01b03163314620001e9573360009081526011602052604090205460ff161515600114620001e95781600d54620001dc919062000be9565b341015620001e957600080fd5b60015b82811162000220576200020b8462000205838562000bcd565b62000288565b80620002178162000c0b565b915050620001ec565b50505050565b600a546001600160a01b03163314620002865760405162461bcd60e51b815260206004820181905260248201527f4f776e61626c653a2063616c6c6572206973206e6f7420746865206f776e657260448201526064015b60405180910390fd5b565b6200013f828260405180602001604052806000815250620002aa60201b60201c565b620002b6838362000322565b620002c5600084848462000478565b6200031d5760405162461bcd60e51b8152602060048201526032602482015260008051602062002ee983398151915260448201527131b2b4bb32b91034b6b83632b6b2b73a32b960711b60648201526084016200027d565b505050565b6001600160a01b0382166200037a5760405162461bcd60e51b815260206004820181905260248201527f4552433732313a206d696e7420746f20746865207a65726f206164647265737360448201526064016200027d565b6000818152600260205260409020546001600160a01b031615620003e15760405162461bcd60e51b815260206004820152601c60248201527f4552433732313a20746f6b656e20616c7265616479206d696e7465640000000060448201526064016200027d565b620003ef60008383620005d4565b6001600160a01b03821660009081526003602052604081208054600192906200041a90849062000bcd565b909155505060008181526002602052604080822080546001600160a01b0319166001600160a01b03861690811790915590518392907fddf252ad1be2c89b69c2b068fc378daa952ba7f163c4a11628f55a4df523b3ef908290a45050565b600062000499846001600160a01b0316620006b060201b62000f951760201c565b15620005c857604051630a85bd0160e11b81526001600160a01b0385169063150b7a0290620004d390339089908890889060040162000c27565b6020604051808303816000875af192505050801562000511575060408051601f3d908101601f191682019092526200050e9181019062000c7d565b60015b620005ad573d80801562000542576040519150601f19603f3d011682016040523d82523d6000602084013e62000547565b606091505b508051600003620005a55760405162461bcd60e51b8152602060048201526032602482015260008051602062002ee983398151915260448201527131b2b4bb32b91034b6b83632b6b2b73a32b960711b60648201526084016200027d565b805181602001fd5b6001600160e01b031916630a85bd0160e11b149050620005cc565b5060015b949350505050565b620005ec8383836200031d60201b620008ab1760201c565b6001600160a01b0383166200064a576200064481600880546000838152600960205260408120829055600182018355919091527ff3f7a9fe364faab93b216da50a3214154f22a0a2b415b23a84c8169e8b636ee30155565b62000670565b816001600160a01b0316836001600160a01b0316146200067057620006708382620006bf565b6001600160a01b0382166200068a576200031d816200076c565b826001600160a01b0316826001600160a01b0316146200031d576200031d828262000826565b6001600160a01b03163b151590565b60006001620006d9846200087760201b62000d2c1760201c565b620006e5919062000cb0565b60008381526007602052604090205490915080821462000739576001600160a01b03841660009081526006602090815260408083208584528252808320548484528184208190558352600790915290208190555b5060009182526007602090815260408084208490556001600160a01b039094168352600681528383209183525290812055565b600854600090620007809060019062000cb0565b60008381526009602052604081205460088054939450909284908110620007ab57620007ab62000cc6565b906000526020600020015490508060088381548110620007cf57620007cf62000cc6565b60009182526020808320909101929092558281526009909152604080822084905585825281205560088054806200080a576200080a62000cdc565b6001900381819060005260206000200160009055905550505050565b60006200083e836200087760201b62000d2c1760201c565b6001600160a01b039093166000908152600660209081526040808320868452825280832085905593825260079052919091209190915550565b60006001600160a01b038216620008e35760405162461bcd60e51b815260206004820152602960248201527f4552433732313a2061646472657373207a65726f206973206e6f7420612076616044820152683634b21037bbb732b960b91b60648201526084016200027d565b506001600160a01b031660009081526003602052604090205490565b634e487b7160e01b600052604160045260246000fd5b600181811c908216806200092a57607f821691505b6020821081036200094b57634e487b7160e01b600052602260045260246000fd5b50919050565b601f8211156200031d57600081815260208120601f850160051c810160208610156200097a5750805b601f850160051c820191505b818110156200099b5782815560010162000986565b505050505050565b81516001600160401b03811115620009bf57620009bf620008ff565b620009d781620009d0845462000915565b8462000951565b602080601f83116001811462000a0f5760008415620009f65750858301515b600019600386901b1c1916600185901b1785556200099b565b600085815260208120601f198616915b8281101562000a405788860151825594840194600190910190840162000a1f565b508582101562000a5f5787850151600019600388901b60f8161c191681555b5050505050600190811b01905550565b60005b8381101562000a8c57818101518382015260200162000a72565b50506000910152565b600082601f83011262000aa757600080fd5b81516001600160401b038082111562000ac45762000ac4620008ff565b604051601f8301601f19908116603f0116810190828211818310171562000aef5762000aef620008ff565b8160405283815286602085880101111562000b0957600080fd5b62000b1c84602083016020890162000a6f565b9695505050505050565b60008060006060848603121562000b3c57600080fd5b83516001600160401b038082111562000b5457600080fd5b62000b628783880162000a95565b9450602086015191508082111562000b7957600080fd5b62000b878783880162000a95565b9350604086015191508082111562000b9e57600080fd5b5062000bad8682870162000a95565b9150509250925092565b634e487b7160e01b600052601160045260246000fd5b8082018082111562000be35762000be362000bb7565b92915050565b600081600019048311821515161562000c065762000c0662000bb7565b500290565b60006001820162000c205762000c2062000bb7565b5060010190565b600060018060a01b03808716835280861660208401525083604083015260806060830152825180608084015262000c668160a085016020870162000a6f565b601f01601f19169190910160a00195945050505050565b60006020828403121562000c9057600080fd5b81516001600160e01b03198116811462000ca957600080fd5b9392505050565b8181038181111562000be35762000be362000bb7565b634e487b7160e01b600052603260045260246000fd5b634e487b7160e01b600052603160045260246000fd5b6121e78062000d026000396000f3fe60806040526004361061020f5760003560e01c806355f804b311610118578063a22cb465116100a0578063d5abeb011161006f578063d5abeb01146105c8578063d936547e146105de578063da3ef23f1461060e578063e985e9c51461062e578063f2fde38b1461067757600080fd5b8063a22cb46514610553578063b88d4fde14610573578063c668286214610593578063c87b56dd146105a857600080fd5b806370a08231116100e757806370a08231146104cb578063715018a6146104eb5780637f00c7a6146105005780638da5cb5b1461052057806395d89b411461053e57600080fd5b806355f804b31461045c5780635c975abb1461047c5780636352211e146104965780636c0360eb146104b657600080fd5b80632f745c591161019b57806342842e0e1161016a57806342842e0e146103af578063438b6300146103cf57806344a0d68a146103fc5780634a4c560d1461041c5780634f6ccce71461043c57600080fd5b80632f745c591461035457806330cc7ae0146103745780633ccfd60b1461039457806340c10f191461039c57600080fd5b8063095ea7b3116101e2578063095ea7b3146102c557806313faede6146102e557806318160ddd14610309578063239c70ae1461031e57806323b872dd1461033457600080fd5b806301ffc9a71461021457806302329a291461024957806306fdde031461026b578063081812fc1461028d575b600080fd5b34801561022057600080fd5b5061023461022f366004611a9e565b610697565b60405190151581526020015b60405180910390f35b34801561025557600080fd5b50610269610264366004611ad0565b6106c2565b005b34801561027757600080fd5b506102806106dd565b6040516102409190611b3b565b34801561029957600080fd5b506102ad6102a8366004611b4e565b61076f565b6040516001600160a01b039091168152602001610240565b3480156102d157600080fd5b506102696102e0366004611b7e565b610796565b3480156102f157600080fd5b506102fb600d5481565b604051908152602001610240565b34801561031557600080fd5b506008546102fb565b34801561032a57600080fd5b506102fb600f5481565b34801561034057600080fd5b5061026961034f366004611ba8565b6108b0565b34801561036057600080fd5b506102fb61036f366004611b7e565b6108e1565b34801561038057600080fd5b5061026961038f366004611be4565b610977565b6102696109a0565b6102696103aa366004611b7e565b6109ce565b3480156103bb57600080fd5b506102696103ca366004611ba8565b610a9d565b3480156103db57600080fd5b506103ef6103ea366004611be4565b610ab8565b6040516102409190611bff565b34801561040857600080fd5b50610269610417366004611b4e565b610b5a565b34801561042857600080fd5b50610269610437366004611be4565b610b67565b34801561044857600080fd5b506102fb610457366004611b4e565b610b93565b34801561046857600080fd5b50610269610477366004611ccf565b610c26565b34801561048857600080fd5b506010546102349060ff1681565b3480156104a257600080fd5b506102ad6104b1366004611b4e565b610c3e565b3480156104c257600080fd5b50610280610c9e565b3480156104d757600080fd5b506102fb6104e6366004611be4565b610d2c565b3480156104f757600080fd5b50610269610db2565b34801561050c57600080fd5b5061026961051b366004611b4e565b610dc4565b34801561052c57600080fd5b50600a546001600160a01b03166102ad565b34801561054a57600080fd5b50610280610dd1565b34801561055f57600080fd5b5061026961056e366004611d18565b610de0565b34801561057f57600080fd5b5061026961058e366004611d4b565b610deb565b34801561059f57600080fd5b50610280610e1d565b3480156105b457600080fd5b506102806105c3366004611b4e565b610e2a565b3480156105d457600080fd5b506102fb600e5481565b3480156105ea57600080fd5b506102346105f9366004611be4565b60116020526000908152604090205460ff1681565b34801561061a57600080fd5b50610269610629366004611ccf565b610f08565b34801561063a57600080fd5b50610234610649366004611dc7565b6001600160a01b03918216600090815260056020908152604080832093909416825291909152205460ff1690565b34801561068357600080fd5b50610269610692366004611be4565b610f1c565b60006001600160e01b0319821663780e9d6360e01b14806106bc57506106bc82610fa4565b92915050565b6106ca610ff4565b6010805460ff1916911515919091179055565b6060600080546106ec90611df1565b80601f016020809104026020016040519081016040528092919081815260200182805461071890611df1565b80156107655780601f1061073a57610100808354040283529160200191610765565b820191906000526020600020905b81548152906001019060200180831161074857829003601f168201915b5050505050905090565b600061077a8261104e565b506000908152600460205260409020546001600160a01b031690565b60006107a182610c3e565b9050806001600160a01b0316836001600160a01b0316036108135760405162461bcd60e51b815260206004820152602160248201527f4552433732313a20617070726f76616c20746f2063757272656e74206f776e656044820152603960f91b60648201526084015b60405180910390fd5b336001600160a01b038216148061082f575061082f8133610649565b6108a15760405162461bcd60e51b815260206004820152603e60248201527f4552433732313a20617070726f76652063616c6c6572206973206e6f7420746f60448201527f6b656e206f776e6572206e6f7220617070726f76656420666f7220616c6c0000606482015260840161080a565b6108ab83836110ad565b505050565b6108ba338261111b565b6108d65760405162461bcd60e51b815260040161080a90611e2b565b6108ab83838361119a565b60006108ec83610d2c565b821061094e5760405162461bcd60e51b815260206004820152602b60248201527f455243373231456e756d657261626c653a206f776e657220696e646578206f7560448201526a74206f6620626f756e647360a81b606482015260840161080a565b506001600160a01b03919091166000908152600660209081526040808320938352929052205490565b61097f610ff4565b6001600160a01b03166000908152601160205260409020805460ff19169055565b6109a8610ff4565b60405133904780156108fc02916000818181858888f193505050506109cc57600080fd5b565b60006109d960085490565b60105490915060ff16156109ec57600080fd5b600082116109f957600080fd5b600f54821115610a0857600080fd5b600e54610a158383611e8f565b1115610a2057600080fd5b600a546001600160a01b03163314610a68573360009081526011602052604090205460ff161515600114610a685781600d54610a5c9190611ea2565b341015610a6857600080fd5b60015b828111610a9757610a8584610a808385611e8f565b611341565b80610a8f81611ec1565b915050610a6b565b50505050565b6108ab83838360405180602001604052806000815250610deb565b60606000610ac583610d2c565b905060008167ffffffffffffffff811115610ae257610ae2611c43565b604051908082528060200260200182016040528015610b0b578160200160208202803683370190505b50905060005b82811015610b5257610b2385826108e1565b828281518110610b3557610b35611eda565b602090810291909101015280610b4a81611ec1565b915050610b11565b509392505050565b610b62610ff4565b600d55565b610b6f610ff4565b6001600160a01b03166000908152601160205260409020805460ff19166001179055565b6000610b9e60085490565b8210610c015760405162461bcd60e51b815260206004820152602c60248201527f455243373231456e756d657261626c653a20676c6f62616c20696e646578206f60448201526b7574206f6620626f756e647360a01b606482015260840161080a565b60088281548110610c1457610c14611eda565b90600052602060002001549050919050565b610c2e610ff4565b600b610c3a8282611f3e565b5050565b6000818152600260205260408120546001600160a01b0316806106bc5760405162461bcd60e51b8152602060048201526018602482015277115490cdcc8c4e881a5b9d985b1a59081d1bdad95b88125160421b604482015260640161080a565b600b8054610cab90611df1565b80601f0160208091040260200160405190810160405280929190818152602001828054610cd790611df1565b8015610d245780601f10610cf957610100808354040283529160200191610d24565b820191906000526020600020905b815481529060010190602001808311610d0757829003601f168201915b505050505081565b60006001600160a01b038216610d965760405162461bcd60e51b815260206004820152602960248201527f4552433732313a2061646472657373207a65726f206973206e6f7420612076616044820152683634b21037bbb732b960b91b606482015260840161080a565b506001600160a01b031660009081526003602052604090205490565b610dba610ff4565b6109cc600061135b565b610dcc610ff4565b600f55565b6060600180546106ec90611df1565b610c3a3383836113ad565b610df5338361111b565b610e115760405162461bcd60e51b815260040161080a90611e2b565b610a978484848461147b565b600c8054610cab90611df1565b6000818152600260205260409020546060906001600160a01b0316610ea95760405162461bcd60e51b815260206004820152602f60248201527f4552433732314d657461646174613a2055524920717565727920666f72206e6f60448201526e3732bc34b9ba32b73a103a37b5b2b760891b606482015260840161080a565b6000610eb36114ae565b90506000815111610ed35760405180602001604052806000815250610f01565b80610edd846114bd565b600c604051602001610ef193929190611ffe565b6040516020818303038152906040525b9392505050565b610f10610ff4565b600c610c3a8282611f3e565b610f24610ff4565b6001600160a01b038116610f895760405162461bcd60e51b815260206004820152602660248201527f4f776e61626c653a206e6577206f776e657220697320746865207a65726f206160448201526564647265737360d01b606482015260840161080a565b610f928161135b565b50565b6001600160a01b03163b151590565b60006001600160e01b031982166380ac58cd60e01b1480610fd557506001600160e01b03198216635b5e139f60e01b145b806106bc57506301ffc9a760e01b6001600160e01b03198316146106bc565b600a546001600160a01b031633146109cc5760405162461bcd60e51b815260206004820181905260248201527f4f776e61626c653a2063616c6c6572206973206e6f7420746865206f776e6572604482015260640161080a565b6000818152600260205260409020546001600160a01b0316610f925760405162461bcd60e51b8152602060048201526018602482015277115490cdcc8c4e881a5b9d985b1a59081d1bdad95b88125160421b604482015260640161080a565b600081815260046020526040902080546001600160a01b0319166001600160a01b03841690811790915581906110e282610c3e565b6001600160a01b03167f8c5be1e5ebec7d5bd14f71427d1e84f3dd0314c0f7b2291e5b200ac8c7c3b92560405160405180910390a45050565b60008061112783610c3e565b9050806001600160a01b0316846001600160a01b0316148061116e57506001600160a01b0380821660009081526005602090815260408083209388168352929052205460ff165b806111925750836001600160a01b03166111878461076f565b6001600160a01b0316145b949350505050565b826001600160a01b03166111ad82610c3e565b6001600160a01b0316146112115760405162461bcd60e51b815260206004820152602560248201527f4552433732313a207472616e736665722066726f6d20696e636f72726563742060448201526437bbb732b960d91b606482015260840161080a565b6001600160a01b0382166112735760405162461bcd60e51b8152602060048201526024808201527f4552433732313a207472616e7366657220746f20746865207a65726f206164646044820152637265737360e01b606482015260840161080a565b61127e8383836115be565b6112896000826110ad565b6001600160a01b03831660009081526003602052604081208054600192906112b290849061209e565b90915550506001600160a01b03821660009081526003602052604081208054600192906112e0908490611e8f565b909155505060008181526002602052604080822080546001600160a01b0319166001600160a01b0386811691821790925591518493918716917fddf252ad1be2c89b69c2b068fc378daa952ba7f163c4a11628f55a4df523b3ef91a4505050565b610c3a828260405180602001604052806000815250611676565b600a80546001600160a01b038381166001600160a01b0319831681179093556040519116919082907f8be0079c531659141344cd1fd0a4f28419497f9722a3daafe3b4186f6b6457e090600090a35050565b816001600160a01b0316836001600160a01b03160361140e5760405162461bcd60e51b815260206004820152601960248201527f4552433732313a20617070726f766520746f2063616c6c657200000000000000604482015260640161080a565b6001600160a01b03838116600081815260056020908152604080832094871680845294825291829020805460ff191686151590811790915591519182527f17307eab39ab6107e8899845ad3d59bd9653f200f220920489ca2b5937696c31910160405180910390a3505050565b61148684848461119a565b611492848484846116a9565b610a975760405162461bcd60e51b815260040161080a906120b1565b6060600b80546106ec90611df1565b6060816000036114e45750506040805180820190915260018152600360fc1b602082015290565b8160005b811561150e57806114f881611ec1565b91506115079050600a83612119565b91506114e8565b60008167ffffffffffffffff81111561152957611529611c43565b6040519080825280601f01601f191660200182016040528015611553576020820181803683370190505b5090505b84156111925761156860018361209e565b9150611575600a8661212d565b611580906030611e8f565b60f81b81838151811061159557611595611eda565b60200101906001600160f81b031916908160001a9053506115b7600a86612119565b9450611557565b6001600160a01b0383166116195761161481600880546000838152600960205260408120829055600182018355919091527ff3f7a9fe364faab93b216da50a3214154f22a0a2b415b23a84c8169e8b636ee30155565b61163c565b816001600160a01b0316836001600160a01b03161461163c5761163c83826117aa565b6001600160a01b038216611653576108ab81611847565b826001600160a01b0316826001600160a01b0316146108ab576108ab82826118f6565b611680838361193a565b61168d60008484846116a9565b6108ab5760405162461bcd60e51b815260040161080a906120b1565b60006001600160a01b0384163b1561179f57604051630a85bd0160e11b81526001600160a01b0385169063150b7a02906116ed903390899088908890600401612141565b6020604051808303816000875af1925050508015611728575060408051601f3d908101601f191682019092526117259181019061217e565b60015b611785573d808015611756576040519150601f19603f3d011682016040523d82523d6000602084013e61175b565b606091505b50805160000361177d5760405162461bcd60e51b815260040161080a906120b1565b805181602001fd5b6001600160e01b031916630a85bd0160e11b149050611192565b506001949350505050565b600060016117b784610d2c565b6117c1919061209e565b600083815260076020526040902054909150808214611814576001600160a01b03841660009081526006602090815260408083208584528252808320548484528184208190558352600790915290208190555b5060009182526007602090815260408084208490556001600160a01b039094168352600681528383209183525290812055565b6008546000906118599060019061209e565b6000838152600960205260408120546008805493945090928490811061188157611881611eda565b9060005260206000200154905080600883815481106118a2576118a2611eda565b60009182526020808320909101929092558281526009909152604080822084905585825281205560088054806118da576118da61219b565b6001900381819060005260206000200160009055905550505050565b600061190183610d2c565b6001600160a01b039093166000908152600660209081526040808320868452825280832085905593825260079052919091209190915550565b6001600160a01b0382166119905760405162461bcd60e51b815260206004820181905260248201527f4552433732313a206d696e7420746f20746865207a65726f2061646472657373604482015260640161080a565b6000818152600260205260409020546001600160a01b0316156119f55760405162461bcd60e51b815260206004820152601c60248201527f4552433732313a20746f6b656e20616c7265616479206d696e74656400000000604482015260640161080a565b611a01600083836115be565b6001600160a01b0382166000908152600360205260408120805460019290611a2a908490611e8f565b909155505060008181526002602052604080822080546001600160a01b0319166001600160a01b03861690811790915590518392907fddf252ad1be2c89b69c2b068fc378daa952ba7f163c4a11628f55a4df523b3ef908290a45050565b6001600160e01b031981168114610f9257600080fd5b600060208284031215611ab057600080fd5b8135610f0181611a88565b80358015158114611acb57600080fd5b919050565b600060208284031215611ae257600080fd5b610f0182611abb565b60005b83811015611b06578181015183820152602001611aee565b50506000910152565b60008151808452611b27816020860160208601611aeb565b601f01601f19169290920160200192915050565b602081526000610f016020830184611b0f565b600060208284031215611b6057600080fd5b5035919050565b80356001600160a01b0381168114611acb57600080fd5b60008060408385031215611b9157600080fd5b611b9a83611b67565b946020939093013593505050565b600080600060608486031215611bbd57600080fd5b611bc684611b67565b9250611bd460208501611b67565b9150604084013590509250925092565b600060208284031215611bf657600080fd5b610f0182611b67565b6020808252825182820181905260009190848201906040850190845b81811015611c3757835183529284019291840191600101611c1b565b50909695505050505050565b634e487b7160e01b600052604160045260246000fd5b600067ffffffffffffffff80841115611c7457611c74611c43565b604051601f8501601f19908116603f01168101908282118183101715611c9c57611c9c611c43565b81604052809350858152868686011115611cb557600080fd5b858560208301376000602087830101525050509392505050565b600060208284031215611ce157600080fd5b813567ffffffffffffffff811115611cf857600080fd5b8201601f81018413611d0957600080fd5b61119284823560208401611c59565b60008060408385031215611d2b57600080fd5b611d3483611b67565b9150611d4260208401611abb565b90509250929050565b60008060008060808587031215611d6157600080fd5b611d6a85611b67565b9350611d7860208601611b67565b925060408501359150606085013567ffffffffffffffff811115611d9b57600080fd5b8501601f81018713611dac57600080fd5b611dbb87823560208401611c59565b91505092959194509250565b60008060408385031215611dda57600080fd5b611de383611b67565b9150611d4260208401611b67565b600181811c90821680611e0557607f821691505b602082108103611e2557634e487b7160e01b600052602260045260246000fd5b50919050565b6020808252602e908201527f4552433732313a2063616c6c6572206973206e6f7420746f6b656e206f776e6560408201526d1c881b9bdc88185c1c1c9bdd995960921b606082015260800190565b634e487b7160e01b600052601160045260246000fd5b808201808211156106bc576106bc611e79565b6000816000190483118215151615611ebc57611ebc611e79565b500290565b600060018201611ed357611ed3611e79565b5060010190565b634e487b7160e01b600052603260045260246000fd5b601f8211156108ab57600081815260208120601f850160051c81016020861015611f175750805b601f850160051c820191505b81811015611f3657828155600101611f23565b505050505050565b815167ffffffffffffffff811115611f5857611f58611c43565b611f6c81611f668454611df1565b84611ef0565b602080601f831160018114611fa15760008415611f895750858301515b600019600386901b1c1916600185901b178555611f36565b600085815260208120601f198616915b82811015611fd057888601518255948401946001909101908401611fb1565b5085821015611fee5787850151600019600388901b60f8161c191681555b5050505050600190811b01905550565b6000845160206120118285838a01611aeb565b8551918401916120248184848a01611aeb565b855492019160009061203581611df1565b6001828116801561204d57600181146120625761208e565b60ff198416875282151583028701945061208e565b896000528560002060005b848110156120865781548982015290830190870161206d565b505082870194505b50929a9950505050505050505050565b818103818111156106bc576106bc611e79565b60208082526032908201527f4552433732313a207472616e7366657220746f206e6f6e20455243373231526560408201527131b2b4bb32b91034b6b83632b6b2b73a32b960711b606082015260800190565b634e487b7160e01b600052601260045260246000fd5b60008261212857612128612103565b500490565b60008261213c5761213c612103565b500690565b6001600160a01b038581168252841660208201526040810183905260806060820181905260009061217490830184611b0f565b9695505050505050565b60006020828403121561219057600080fd5b8151610f0181611a88565b634e487b7160e01b600052603160045260246000fdfea26469706673582212202762cdbb21b6dd65e625c4846822069b9286aa9b2ccc6594706677e6cc410bb864736f6c634300081000334552433732313a207472616e7366657220746f206e6f6e204552433732315265",
  "immutableReferences": {},
  "source": "// SPDX-License-Identifier: GPL-3.0\n\npragma solidity ^0.8.0;\n\nimport \"@openzeppelin/contracts/token/ERC721/extensions/ERC721Enumerable.sol\";\nimport \"@openzeppelin/contracts/access/Ownable.sol\";\n\ncontract NftToken is ERC721Enumerable, Ownable {\n  using Strings for uint256;\n\n  string public baseURI;\n  string public baseExtension = \".json\";\n  uint256 public cost = 0.000001 ether;\n  uint256 public maxSupply = 200;\n  uint256 public maxMintAmount = 10;\n  bool public paused = false;\n  mapping(address => bool) public whitelisted;\n\n  constructor(\n    string memory _name,\n    string memory _symbol,\n    string memory _initBaseURI\n  ) ERC721(_name, _symbol) {\n    setBaseURI(_initBaseURI);\n    mint(msg.sender, 10);\n  }\n\n  // internal\n  function _baseURI() internal view virtual override returns (string memory) {\n    return baseURI;\n  }\n\n  // public\n  function mint(address _to, uint256 _mintAmount) public payable {\n    uint256 supply = totalSupply();\n    require(!paused);\n    require(_mintAmount > 0);\n    require(_mintAmount <= maxMintAmount);\n    require(supply + _mintAmount <= maxSupply);\n\n    if (msg.sender != owner()) {\n        if(whitelisted[msg.sender] != true) {\n          require(msg.value >= cost * _mintAmount);\n        }\n    }\n\n    for (uint256 i = 1; i <= _mintAmount; i++) {\n      _safeMint(_to, supply + i);\n    }\n  }\n\n  function walletOfOwner(address _owner)\n    public\n    view\n    returns (uint256[] memory)\n  {\n    uint256 ownerTokenCount = balanceOf(_owner);\n    uint256[] memory tokenIds = new uint256[](ownerTokenCount);\n    for (uint256 i; i < ownerTokenCount; i++) {\n      tokenIds[i] = tokenOfOwnerByIndex(_owner, i);\n    }\n    return tokenIds;\n  }\n\n  function tokenURI(uint256 tokenId)\n    public\n    view\n    virtual\n    override\n    returns (string memory)\n  {\n    require(\n      _exists(tokenId),\n      \"ERC721Metadata: URI query for nonexistent token\"\n    );\n\n    string memory currentBaseURI = _baseURI();\n    return bytes(currentBaseURI).length > 0\n        ? string(abi.encodePacked(currentBaseURI, tokenId.toString(), baseExtension))\n        : \"\";\n  }\n\n  //only owner\n  function setCost(uint256 _newCost) public onlyOwner {\n    cost = _newCost;\n  }\n\n  function setmaxMintAmount(uint256 _newmaxMintAmount) public onlyOwner {\n    maxMintAmount = _newmaxMintAmount;\n  }\n\n  function setBaseURI(string memory _newBaseURI) public onlyOwner {\n    baseURI = _newBaseURI;\n  }\n\n  function setBaseExtension(string memory _newBaseExtension) public onlyOwner {\n    baseExtension = _newBaseExtension;\n  }\n\n  function pause(bool _state) public onlyOwner {\n    paused = _state;\n  }\n \n function whitelistUser(address _user) public onlyOwner {\n    whitelisted[_user] = true;\n  }\n \n  function removeWhitelistUser(address _user) public onlyOwner {\n    whitelisted[_user] = false;\n  }\n\n  function withdraw() public payable onlyOwner {\n    require(payable(msg.sender).send(address(this).balance));\n  }\n}",
  "sourcePath": "/Users/ameliawibi/Documents/Rocket/bootcamp/project4/mint-page/contracts/NftToken.sol",
  "compiler": {
    "name": "solc",
    "version": "0.8.16+commit.07a7930e.Emscripten.clang"
  },
  "schemaVersion": "3.4.9",
  "updatedAt": "2022-08-30T12:27:41.762Z",
  "networkType": "ethereum",
  "devdoc": {
    "kind": "dev",
    "methods": {
      "approve(address,uint256)": {
        "details": "See {IERC721-approve}."
      },
      "balanceOf(address)": {
        "details": "See {IERC721-balanceOf}."
      },
      "getApproved(uint256)": {
        "details": "See {IERC721-getApproved}."
      },
      "isApprovedForAll(address,address)": {
        "details": "See {IERC721-isApprovedForAll}."
      },
      "name()": {
        "details": "See {IERC721Metadata-name}."
      },
      "owner()": {
        "details": "Returns the address of the current owner."
      },
      "ownerOf(uint256)": {
        "details": "See {IERC721-ownerOf}."
      },
      "renounceOwnership()": {
        "details": "Leaves the contract without owner. It will not be possible to call `onlyOwner` functions anymore. Can only be called by the current owner. NOTE: Renouncing ownership will leave the contract without an owner, thereby removing any functionality that is only available to the owner."
      },
      "safeTransferFrom(address,address,uint256)": {
        "details": "See {IERC721-safeTransferFrom}."
      },
      "safeTransferFrom(address,address,uint256,bytes)": {
        "details": "See {IERC721-safeTransferFrom}."
      },
      "setApprovalForAll(address,bool)": {
        "details": "See {IERC721-setApprovalForAll}."
      },
      "supportsInterface(bytes4)": {
        "details": "See {IERC165-supportsInterface}."
      },
      "symbol()": {
        "details": "See {IERC721Metadata-symbol}."
      },
      "tokenByIndex(uint256)": {
        "details": "See {IERC721Enumerable-tokenByIndex}."
      },
      "tokenOfOwnerByIndex(address,uint256)": {
        "details": "See {IERC721Enumerable-tokenOfOwnerByIndex}."
      },
      "tokenURI(uint256)": {
        "details": "See {IERC721Metadata-tokenURI}."
      },
      "totalSupply()": {
        "details": "See {IERC721Enumerable-totalSupply}."
      },
      "transferFrom(address,address,uint256)": {
        "details": "See {IERC721-transferFrom}."
      },
      "transferOwnership(address)": {
        "details": "Transfers ownership of the contract to a new account (`newOwner`). Can only be called by the current owner."
      }
    },
    "version": 1
  },
  "userdoc": {
    "kind": "user",
    "methods": {},
    "version": 1
  }
}